{
  "_format": "hh-sol-artifact-1",
  "contractName": "FundMe",
  "sourceName": "contracts/FundMe.sol",
  "abi": [
    {
      "inputs": [
        {
          "internalType": "uint256",
          "name": "_lockTime",
          "type": "uint256"
        },
        {
          "internalType": "address",
          "name": "dataFeedAddr",
          "type": "address"
        }
      ],
      "stateMutability": "nonpayable",
      "type": "constructor"
    },
    {
      "anonymous": false,
      "inputs": [
        {
          "indexed": false,
          "internalType": "uint256",
          "name": "",
          "type": "uint256"
        }
      ],
      "name": "FundWithdrawByOwner",
      "type": "event"
    },
    {
      "anonymous": false,
      "inputs": [
        {
          "indexed": false,
          "internalType": "address",
          "name": "",
          "type": "address"
        },
        {
          "indexed": false,
          "internalType": "uint256",
          "name": "",
          "type": "uint256"
        }
      ],
      "name": "RefundByFunder",
      "type": "event"
    },
    {
      "inputs": [],
      "name": "dataFeed",
      "outputs": [
        {
          "internalType": "contract AggregatorV3Interface",
          "name": "",
          "type": "address"
        }
      ],
      "stateMutability": "view",
      "type": "function"
    },
    {
      "inputs": [],
      "name": "fund",
      "outputs": [],
      "stateMutability": "payable",
      "type": "function"
    },
    {
      "inputs": [
        {
          "internalType": "address",
          "name": "",
          "type": "address"
        }
      ],
      "name": "fundersToAmount",
      "outputs": [
        {
          "internalType": "uint256",
          "name": "",
          "type": "uint256"
        }
      ],
      "stateMutability": "view",
      "type": "function"
    },
    {
      "inputs": [],
      "name": "getChainlinkDataFeedLatestAnswer",
      "outputs": [
        {
          "internalType": "int256",
          "name": "",
          "type": "int256"
        }
      ],
      "stateMutability": "view",
      "type": "function"
    },
    {
      "inputs": [],
      "name": "getFund",
      "outputs": [],
      "stateMutability": "nonpayable",
      "type": "function"
    },
    {
      "inputs": [],
      "name": "getFundSuccess",
      "outputs": [
        {
          "internalType": "bool",
          "name": "",
          "type": "bool"
        }
      ],
      "stateMutability": "view",
      "type": "function"
    },
    {
      "inputs": [],
      "name": "owner",
      "outputs": [
        {
          "internalType": "address",
          "name": "",
          "type": "address"
        }
      ],
      "stateMutability": "view",
      "type": "function"
    },
    {
      "inputs": [],
      "name": "refund",
      "outputs": [],
      "stateMutability": "nonpayable",
      "type": "function"
    },
    {
      "inputs": [
        {
          "internalType": "address",
          "name": "_erc20Addr",
          "type": "address"
        }
      ],
      "name": "setErc20Addr",
      "outputs": [],
      "stateMutability": "nonpayable",
      "type": "function"
    },
    {
      "inputs": [
        {
          "internalType": "address",
          "name": "funder",
          "type": "address"
        },
        {
          "internalType": "uint256",
          "name": "amountToUpdate",
          "type": "uint256"
        }
      ],
      "name": "setFunderToAmount",
      "outputs": [],
      "stateMutability": "nonpayable",
      "type": "function"
    },
    {
      "inputs": [
        {
          "internalType": "address",
          "name": "newOwner",
          "type": "address"
        }
      ],
      "name": "transferOwnership",
      "outputs": [],
      "stateMutability": "nonpayable",
      "type": "function"
    }
  ],
  "bytecode": "0x60806040526402540be4006001556000600660146101000a81548160ff02191690831515021790555034801561003457600080fd5b50604051611f7b380380611f7b8339818101604052810190610056919061020b565b61007067ae8003d26b0cda2d60c01b61016f60201b60201c565b61008a67e96adba13320a03560c01b61016f60201b60201c565b80600260006101000a81548173ffffffffffffffffffffffffffffffffffffffff021916908373ffffffffffffffffffffffffffffffffffffffff1602179055506100e567da2feac0dcd0f04660c01b61016f60201b60201c565b33600360006101000a81548173ffffffffffffffffffffffffffffffffffffffff021916908373ffffffffffffffffffffffffffffffffffffffff1602179055506101406759a8d6a47cb22dd760c01b61016f60201b60201c565b426004819055506101616747a11d37143d580b60c01b61016f60201b60201c565b81600581905550505061024b565b50565b600080fd5b6000819050919050565b61018a81610177565b811461019557600080fd5b50565b6000815190506101a781610181565b92915050565b600073ffffffffffffffffffffffffffffffffffffffff82169050919050565b60006101d8826101ad565b9050919050565b6101e8816101cd565b81146101f357600080fd5b50565b600081519050610205816101df565b92915050565b6000806040838503121561022257610221610172565b5b600061023085828601610198565b9250506020610241858286016101f6565b9150509250929050565b611d218061025a6000396000f3fe60806040526004361061009c5760003560e01c80639f883a05116100645780639f883a051461014e578063b60d42881461018b578063bea4dfb514610195578063d39cf006146101c0578063da4658e0146101e9578063f2fde38b146102145761009c565b806313ffff01146100a1578063590e1ae3146100ca5780638da5cb5b146100e15780638edd6eb61461010c5780639e42ff9014610123575b600080fd5b3480156100ad57600080fd5b506100c860048036038101906100c39190611475565b61023d565b005b3480156100d657600080fd5b506100df6103d9565b005b3480156100ed57600080fd5b506100f66108b1565b60405161010391906114b1565b60405180910390f35b34801561011857600080fd5b506101216108d7565b005b34801561012f57600080fd5b50610138610d77565b604051610145919061152b565b60405180910390f35b34801561015a57600080fd5b5061017560048036038101906101709190611475565b610d9d565b604051610182919061155f565b60405180910390f35b610193610db5565b005b3480156101a157600080fd5b506101aa610f72565b6040516101b79190611593565b60405180910390f35b3480156101cc57600080fd5b506101e760048036038101906101e291906115da565b611078565b005b3480156101f557600080fd5b506101fe6111c7565b60405161020b9190611635565b60405180910390f35b34801561022057600080fd5b5061023b60048036038101906102369190611475565b6111da565b005b610251672ef83db7feb1f0e360c01b611376565b610265678d94dac3825e3af060c01b611376565b61027967056ea8bf875b55d860c01b611376565b61028d67619ce79c4916f32c60c01b611376565b6102a167cdb385e24c03feba60c01b611376565b600360009054906101000a900473ffffffffffffffffffffffffffffffffffffffff1673ffffffffffffffffffffffffffffffffffffffff163373ffffffffffffffffffffffffffffffffffffffff1614610331576040517f08c379a0000000000000000000000000000000000000000000000000000000008152600401610328906116d3565b60405180910390fd5b6103456773d67b78bf4f326060c01b611376565b61035967ae751e08c3458d1260c01b611376565b61036d675e3f615ed4990bdf60c01b611376565b61038167844c49455e60454360c01b611376565b61039567f3f22cd8472e9e9460c01b611376565b80600660006101000a81548173ffffffffffffffffffffffffffffffffffffffff021916908373ffffffffffffffffffffffffffffffffffffffff16021790555050565b6103ed6736df23a7b34b526660c01b611376565b61040167740ab347ab90789e60c01b611376565b610415679118a68f55cfb34e60c01b611376565b61042967adca7ba1c2c4a15760c01b611376565b61043d679d99ff2aeedf706160c01b611376565b60055460045461044d9190611722565b42101561048f576040517f08c379a0000000000000000000000000000000000000000000000000000000008152600401610486906117a2565b60405180910390fd5b6104a367f6703b92d43a87fd60c01b611376565b6104b7678c538a2ff2d886af60c01b611376565b6104cb67c4cc1eefe289806160c01b611376565b6104df67f884ee8b9925a54a60c01b611376565b6104f367889a2834c0c4e05360c01b611376565b610507675ab46cc29be7ebd260c01b611376565b61051b67ba5f68406baf828e60c01b611376565b64174876e80061052a47611379565b1061056a576040517f08c379a00000000000000000000000000000000000000000000000000000000081526004016105619061180e565b60405180910390fd5b61057e67f074c857f34ba95460c01b611376565b610592678ec182dbcd2a20a960c01b611376565b6105a667848495047e13ffb060c01b611376565b6105ba67574c16c966c510ac60c01b611376565b60008060003373ffffffffffffffffffffffffffffffffffffffff1673ffffffffffffffffffffffffffffffffffffffff168152602001908152602001600020540361063b576040517f08c379a00000000000000000000000000000000000000000000000000000000081526004016106329061187a565b60405180910390fd5b61064f67912cc0d481075a1d60c01b611376565b6106636726dff226075544c460c01b611376565b61067767993d94862626619960c01b611376565b600061068d67117b2fc31597280e60c01b611376565b6106a16762f7172601d7c22d60c01b611376565b60008060003373ffffffffffffffffffffffffffffffffffffffff1673ffffffffffffffffffffffffffffffffffffffff1681526020019081526020016000205490506106f86709d09725313e862660c01b611376565b3373ffffffffffffffffffffffffffffffffffffffff168160405161071c906118cb565b60006040518083038185875af1925050503d8060008114610759576040519150601f19603f3d011682016040523d82523d6000602084013e61075e565b606091505b5050809250506107786703ed23002a22d5e560c01b611376565b61078c67a8fb04aef6fc4c1060c01b611376565b6107a067badce10d6f4ed82e60c01b611376565b816107e0576040517f08c379a00000000000000000000000000000000000000000000000000000000081526004016107d79061192c565b60405180910390fd5b6107f46720641fddce82160e60c01b611376565b6108086785b0622fb48aa40060c01b611376565b60008060003373ffffffffffffffffffffffffffffffffffffffff1673ffffffffffffffffffffffffffffffffffffffff16815260200190815260200160002081905550610860679bb29ac3a335a5a560c01b611376565b610874675fd782606720a3d760c01b611376565b7fc69be1ee5ac2aec580fb0927d8d940555d6f0a7bd11eed94b5b597056113da5f33826040516108a592919061194c565b60405180910390a15050565b600360009054906101000a900473ffffffffffffffffffffffffffffffffffffffff1681565b6108eb6707556ba5dc19ec4a60c01b611376565b6108ff67740ab347ab90789e60c01b611376565b610913679118a68f55cfb34e60c01b611376565b61092767adca7ba1c2c4a15760c01b611376565b61093b679d99ff2aeedf706160c01b611376565b60055460045461094b9190611722565b42101561098d576040517f08c379a0000000000000000000000000000000000000000000000000000000008152600401610984906117a2565b60405180910390fd5b6109a167f6703b92d43a87fd60c01b611376565b6109b5678c538a2ff2d886af60c01b611376565b6109c96792e0c6597471885460c01b611376565b6109dd679a327b4ada7d89a360c01b611376565b6109f1678d94dac3825e3af060c01b611376565b610a0567056ea8bf875b55d860c01b611376565b610a1967619ce79c4916f32c60c01b611376565b610a2d67cdb385e24c03feba60c01b611376565b600360009054906101000a900473ffffffffffffffffffffffffffffffffffffffff1673ffffffffffffffffffffffffffffffffffffffff163373ffffffffffffffffffffffffffffffffffffffff1614610abd576040517f08c379a0000000000000000000000000000000000000000000000000000000008152600401610ab4906116d3565b60405180910390fd5b610ad16773d67b78bf4f326060c01b611376565b610ae567ae751e08c3458d1260c01b611376565b610af96798be91d79d3929a560c01b611376565b610b0d67979fd9d6b7eb4c7060c01b611376565b610b2167b3a293bb1efeae4f60c01b611376565b610b356746c98500deb5646860c01b611376565b610b4967a89060c755886e3a60c01b611376565b64174876e800610b5847611379565b1015610b99576040517f08c379a0000000000000000000000000000000000000000000000000000000008152600401610b90906119c1565b60405180910390fd5b610bad678a1334ec10f4253b60c01b611376565b610bc16747286b67e0c050c860c01b611376565b610bd567c5fbee92a00627e660c01b611376565b6000610beb678554a9a70acdbccc60c01b611376565b610bff672f7544365e0aa35060c01b611376565b6000479050610c186765b25242726d5e8460c01b611376565b3373ffffffffffffffffffffffffffffffffffffffff1681604051610c3c906118cb565b60006040518083038185875af1925050503d8060008114610c79576040519150601f19603f3d011682016040523d82523d6000602084013e610c7e565b606091505b505080925050610c9867a75501052770f30c60c01b611376565b610cac674eaae4e7db87ff5e60c01b611376565b610cc067d2028d635fd8867060c01b611376565b81610d00576040517f08c379a0000000000000000000000000000000000000000000000000000000008152600401610cf79061192c565b60405180910390fd5b610d1467a317b96fe6007e7c60c01b611376565b610d2867b128a79583f4c87f60c01b611376565b610d3c6735df47da1d5e9fae60c01b611376565b7f2413e9342f4545ed6b87ad890930d6affc4c1914b742a3fad66c49d6d507c73b81604051610d6b919061155f565b60405180910390a15050565b600260009054906101000a900473ffffffffffffffffffffffffffffffffffffffff1681565b60006020528060005260406000206000915090505481565b610dc967b42d3fcc3e157d1c60c01b611376565b610ddd67700c42d2929c8dfc60c01b611376565b610df1673ca0f8f133bb335160c01b611376565b610e05670125cafbe23c659960c01b611376565b600154610e1134611379565b1015610e52576040517f08c379a0000000000000000000000000000000000000000000000000000000008152600401610e4990611a2d565b60405180910390fd5b610e66674160f0290a48e03d60c01b611376565b610e7a678224653c69ded85a60c01b611376565b610e8e67aa2253b8cb1ed71760c01b611376565b610ea267e596ac7a16e9d55b60c01b611376565b600554600454610eb29190611722565b4210610ef3576040517f08c379a0000000000000000000000000000000000000000000000000000000008152600401610eea90611a99565b60405180910390fd5b610f076743f2e87e93e79d7460c01b611376565b610f1b67c70b60b61e1b469b60c01b611376565b346000803373ffffffffffffffffffffffffffffffffffffffff1673ffffffffffffffffffffffffffffffffffffffff1681526020019081526020016000206000828254610f699190611722565b92505081905550565b6000610f886788c5225a88c347a460c01b611376565b610f9c67f8b6ce198022860d60c01b611376565b610fb0675ef4174804235c6b60c01b611376565b6000600260009054906101000a900473ffffffffffffffffffffffffffffffffffffffff1673ffffffffffffffffffffffffffffffffffffffff1663feaf968c6040518163ffffffff1660e01b815260040160a060405180830381865afa15801561101f573d6000803e3d6000fd5b505050506040513d601f19601f820116820180604052508101906110439190611b3c565b50505091505061105d67d97eafb2eeba3df660c01b611376565b6110716734e0ec862926aaec60c01b611376565b8091505090565b61108c678e9e5f70dd4ef1bd60c01b611376565b6110a0679c699ec8a48657df60c01b611376565b6110b467d86385a3fd0c70c460c01b611376565b6110c8670118dd48c9d07d5d60c01b611376565b600660009054906101000a900473ffffffffffffffffffffffffffffffffffffffff1673ffffffffffffffffffffffffffffffffffffffff163373ffffffffffffffffffffffffffffffffffffffff1614611158576040517f08c379a000000000000000000000000000000000000000000000000000000000815260040161114f90611c29565b60405180910390fd5b61116c674170fbc5ade13f3d60c01b611376565b611180673389f6116ac7f1d560c01b611376565b806000808473ffffffffffffffffffffffffffffffffffffffff1673ffffffffffffffffffffffffffffffffffffffff168152602001908152602001600020819055505050565b600660149054906101000a900460ff1681565b6111ee67e3733e2c9e9b9a5f60c01b611376565b611202678d94dac3825e3af060c01b611376565b61121667056ea8bf875b55d860c01b611376565b61122a67619ce79c4916f32c60c01b611376565b61123e67cdb385e24c03feba60c01b611376565b600360009054906101000a900473ffffffffffffffffffffffffffffffffffffffff1673ffffffffffffffffffffffffffffffffffffffff163373ffffffffffffffffffffffffffffffffffffffff16146112ce576040517f08c379a00000000000000000000000000000000000000000000000000000000081526004016112c5906116d3565b60405180910390fd5b6112e26773d67b78bf4f326060c01b611376565b6112f667ae751e08c3458d1260c01b611376565b61130a676d805c9c9ca8845b60c01b611376565b61131e671909df4efdbc5a6460c01b611376565b61133267ca8ee4c204ac469760c01b611376565b80600360006101000a81548173ffffffffffffffffffffffffffffffffffffffff021916908373ffffffffffffffffffffffffffffffffffffffff16021790555050565b50565b600061138f67ff50d0e313f2c40f60c01b611376565b6113a3675c568858008bca8660c01b611376565b6113b7671f6adfd6f978c9ee60c01b611376565b60006113c1610f72565b90506113d7678f5e4ae74b12774060c01b611376565b6113eb67306544133a03d8c860c01b611376565b670de0b6b3a764000081846114009190611c49565b61140a9190611cba565b915050919050565b600080fd5b600073ffffffffffffffffffffffffffffffffffffffff82169050919050565b600061144282611417565b9050919050565b61145281611437565b811461145d57600080fd5b50565b60008135905061146f81611449565b92915050565b60006020828403121561148b5761148a611412565b5b600061149984828501611460565b91505092915050565b6114ab81611437565b82525050565b60006020820190506114c660008301846114a2565b92915050565b6000819050919050565b60006114f16114ec6114e784611417565b6114cc565b611417565b9050919050565b6000611503826114d6565b9050919050565b6000611515826114f8565b9050919050565b6115258161150a565b82525050565b6000602082019050611540600083018461151c565b92915050565b6000819050919050565b61155981611546565b82525050565b60006020820190506115746000830184611550565b92915050565b6000819050919050565b61158d8161157a565b82525050565b60006020820190506115a86000830184611584565b92915050565b6115b781611546565b81146115c257600080fd5b50565b6000813590506115d4816115ae565b92915050565b600080604083850312156115f1576115f0611412565b5b60006115ff85828601611460565b9250506020611610858286016115c5565b9150509250929050565b60008115159050919050565b61162f8161161a565b82525050565b600060208201905061164a6000830184611626565b92915050565b600082825260208201905092915050565b7f746869732066756e6374696f6e2063616e206f6e6c792062652063616c6c656460008201527f206279206f776e65720000000000000000000000000000000000000000000000602082015250565b60006116bd602983611650565b91506116c882611661565b604082019050919050565b600060208201905081810360008301526116ec816116b0565b9050919050565b7f4e487b7100000000000000000000000000000000000000000000000000000000600052601160045260246000fd5b600061172d82611546565b915061173883611546565b92508282019050808211156117505761174f6116f3565b5b92915050565b7f77696e646f77206973206e6f7420636c6f736564000000000000000000000000600082015250565b600061178c601483611650565b915061179782611756565b602082019050919050565b600060208201905081810360008301526117bb8161177f565b9050919050565b7f7461726765742069732072656163686564000000000000000000000000000000600082015250565b60006117f8601183611650565b9150611803826117c2565b602082019050919050565b60006020820190508181036000830152611827816117eb565b9050919050565b7f7468657265206973206e6f2066756e6420666f7220796f750000000000000000600082015250565b6000611864601883611650565b915061186f8261182e565b602082019050919050565b6000602082019050818103600083015261189381611857565b9050919050565b600081905092915050565b50565b60006118b560008361189a565b91506118c0826118a5565b600082019050919050565b60006118d6826118a8565b9150819050919050565b7f7472616e73666572207478206661696c65640000000000000000000000000000600082015250565b6000611916601283611650565b9150611921826118e0565b602082019050919050565b6000602082019050818103600083015261194581611909565b9050919050565b600060408201905061196160008301856114a2565b61196e6020830184611550565b9392505050565b7f746172676574206973206e6f7420726561636865640000000000000000000000600082015250565b60006119ab601583611650565b91506119b682611975565b602082019050919050565b600060208201905081810360008301526119da8161199e565b9050919050565b7f53656e64206d6f72652045544800000000000000000000000000000000000000600082015250565b6000611a17600d83611650565b9150611a22826119e1565b602082019050919050565b60006020820190508181036000830152611a4681611a0a565b9050919050565b7f77696e646f7720697320636c6f73656400000000000000000000000000000000600082015250565b6000611a83601083611650565b9150611a8e82611a4d565b602082019050919050565b60006020820190508181036000830152611ab281611a76565b9050919050565b600069ffffffffffffffffffff82169050919050565b611ad881611ab9565b8114611ae357600080fd5b50565b600081519050611af581611acf565b92915050565b611b048161157a565b8114611b0f57600080fd5b50565b600081519050611b2181611afb565b92915050565b600081519050611b36816115ae565b92915050565b600080600080600060a08688031215611b5857611b57611412565b5b6000611b6688828901611ae6565b9550506020611b7788828901611b12565b9450506040611b8888828901611b27565b9350506060611b9988828901611b27565b9250506080611baa88828901611ae6565b9150509295509295909350565b7f796f7520646f206e6f742068617665207065726d697373696f6e20746f20636160008201527f6c6c20746869732066756e6374696f6e00000000000000000000000000000000602082015250565b6000611c13603083611650565b9150611c1e82611bb7565b604082019050919050565b60006020820190508181036000830152611c4281611c06565b9050919050565b6000611c5482611546565b9150611c5f83611546565b9250828202611c6d81611546565b91508282048414831517611c8457611c836116f3565b5b5092915050565b7f4e487b7100000000000000000000000000000000000000000000000000000000600052601260045260246000fd5b6000611cc582611546565b9150611cd083611546565b925082611ce057611cdf611c8b565b5b82820490509291505056fea2646970667358221220d871db8db76b680d40141acb4f0330b758bcac54706591ebdca382cdfcc893c264736f6c634300081c0033",
  "linkReferences": {},
  "deployedLinkReferences": {}
}