{
  "_format": "hh-sol-artifact-1",
  "contractName": "FundMe",
  "sourceName": "contracts/FundMe.sol",
  "abi": [
    {
      "inputs": [
        {
          "internalType": "uint256",
          "name": "_lockTime",
          "type": "uint256"
        },
        {
          "internalType": "address",
          "name": "dataFeedAddr",
          "type": "address"
        }
      ],
      "stateMutability": "nonpayable",
      "type": "constructor"
    },
    {
      "inputs": [],
      "name": "dataFeed",
      "outputs": [
        {
          "internalType": "contract AggregatorV3Interface",
          "name": "",
          "type": "address"
        }
      ],
      "stateMutability": "view",
      "type": "function"
    },
    {
      "inputs": [],
      "name": "fund",
      "outputs": [],
      "stateMutability": "payable",
      "type": "function"
    },
    {
      "inputs": [
        {
          "internalType": "address",
          "name": "",
          "type": "address"
        }
      ],
      "name": "fundersToAmount",
      "outputs": [
        {
          "internalType": "uint256",
          "name": "",
          "type": "uint256"
        }
      ],
      "stateMutability": "view",
      "type": "function"
    },
    {
      "inputs": [],
      "name": "getChainlinkDataFeedLatestAnswer",
      "outputs": [
        {
          "internalType": "int256",
          "name": "",
          "type": "int256"
        }
      ],
      "stateMutability": "view",
      "type": "function"
    },
    {
      "inputs": [],
      "name": "getFund",
      "outputs": [],
      "stateMutability": "nonpayable",
      "type": "function"
    },
    {
      "inputs": [],
      "name": "getFundSuccess",
      "outputs": [
        {
          "internalType": "bool",
          "name": "",
          "type": "bool"
        }
      ],
      "stateMutability": "view",
      "type": "function"
    },
    {
      "inputs": [],
      "name": "owner",
      "outputs": [
        {
          "internalType": "address",
          "name": "",
          "type": "address"
        }
      ],
      "stateMutability": "view",
      "type": "function"
    },
    {
      "inputs": [],
      "name": "refund",
      "outputs": [],
      "stateMutability": "nonpayable",
      "type": "function"
    },
    {
      "inputs": [
        {
          "internalType": "address",
          "name": "_erc20Addr",
          "type": "address"
        }
      ],
      "name": "setErc20Addr",
      "outputs": [],
      "stateMutability": "nonpayable",
      "type": "function"
    },
    {
      "inputs": [
        {
          "internalType": "address",
          "name": "funder",
          "type": "address"
        },
        {
          "internalType": "uint256",
          "name": "amountToUpdate",
          "type": "uint256"
        }
      ],
      "name": "setFunderToAmount",
      "outputs": [],
      "stateMutability": "nonpayable",
      "type": "function"
    },
    {
      "inputs": [
        {
          "internalType": "address",
          "name": "newOwner",
          "type": "address"
        }
      ],
      "name": "transferOwnership",
      "outputs": [],
      "stateMutability": "nonpayable",
      "type": "function"
    }
  ],
  "bytecode": "0x608060405268056bc75e2d631000006001556000600660146101000a81548160ff02191690831515021790555034801561003857600080fd5b5060405161160b38038061160b833981810160405281019061005a919061018a565b80600260006101000a81548173ffffffffffffffffffffffffffffffffffffffff021916908373ffffffffffffffffffffffffffffffffffffffff16021790555033600360006101000a81548173ffffffffffffffffffffffffffffffffffffffff021916908373ffffffffffffffffffffffffffffffffffffffff160217905550426004819055508160058190555050506101ca565b600080fd5b6000819050919050565b610109816100f6565b811461011457600080fd5b50565b60008151905061012681610100565b92915050565b600073ffffffffffffffffffffffffffffffffffffffff82169050919050565b60006101578261012c565b9050919050565b6101678161014c565b811461017257600080fd5b50565b6000815190506101848161015e565b92915050565b600080604083850312156101a1576101a06100f1565b5b60006101af85828601610117565b92505060206101c085828601610175565b9150509250929050565b611432806101d96000396000f3fe60806040526004361061009c5760003560e01c80639f883a05116100645780639f883a051461014e578063b60d42881461018b578063bea4dfb514610195578063d39cf006146101c0578063da4658e0146101e9578063f2fde38b146102145761009c565b806313ffff01146100a1578063590e1ae3146100ca5780638da5cb5b146100e15780638edd6eb61461010c5780639e42ff9014610123575b600080fd5b3480156100ad57600080fd5b506100c860048036038101906100c39190610baf565b61023d565b005b3480156100d657600080fd5b506100df610311565b005b3480156100ed57600080fd5b506100f6610581565b6040516101039190610beb565b60405180910390f35b34801561011857600080fd5b506101216105a7565b005b34801561012f57600080fd5b5061013861078a565b6040516101459190610c65565b60405180910390f35b34801561015a57600080fd5b5061017560048036038101906101709190610baf565b6107b0565b6040516101829190610c99565b60405180910390f35b6101936107c8565b005b3480156101a157600080fd5b506101aa6108bd565b6040516101b79190610ccd565b60405180910390f35b3480156101cc57600080fd5b506101e760048036038101906101e29190610d14565b61095e565b005b3480156101f557600080fd5b506101fe610a35565b60405161020b9190610d6f565b60405180910390f35b34801561022057600080fd5b5061023b60048036038101906102369190610baf565b610a48565b005b600360009054906101000a900473ffffffffffffffffffffffffffffffffffffffff1673ffffffffffffffffffffffffffffffffffffffff163373ffffffffffffffffffffffffffffffffffffffff16146102cd576040517f08c379a00000000000000000000000000000000000000000000000000000000081526004016102c490610e0d565b60405180910390fd5b80600660006101000a81548173ffffffffffffffffffffffffffffffffffffffff021916908373ffffffffffffffffffffffffffffffffffffffff16021790555050565b6005546004546103219190610e5c565b421015610363576040517f08c379a000000000000000000000000000000000000000000000000000000000815260040161035a90610edc565b60405180910390fd5b64174876e80061037247610b1c565b106103b2576040517f08c379a00000000000000000000000000000000000000000000000000000000081526004016103a990610f48565b60405180910390fd5b60008060003373ffffffffffffffffffffffffffffffffffffffff1673ffffffffffffffffffffffffffffffffffffffff1681526020019081526020016000205403610433576040517f08c379a000000000000000000000000000000000000000000000000000000000815260040161042a90610fb4565b60405180910390fd5b60003373ffffffffffffffffffffffffffffffffffffffff166000803373ffffffffffffffffffffffffffffffffffffffff1673ffffffffffffffffffffffffffffffffffffffff1681526020019081526020016000205460405161049790611005565b60006040518083038185875af1925050503d80600081146104d4576040519150601f19603f3d011682016040523d82523d6000602084013e6104d9565b606091505b5050809150508061051f576040517f08c379a000000000000000000000000000000000000000000000000000000000815260040161051690611066565b60405180910390fd5b60008060003373ffffffffffffffffffffffffffffffffffffffff1673ffffffffffffffffffffffffffffffffffffffff168152602001908152602001600020819055506001600660146101000a81548160ff02191690831515021790555050565b600360009054906101000a900473ffffffffffffffffffffffffffffffffffffffff1681565b6005546004546105b79190610e5c565b4210156105f9576040517f08c379a00000000000000000000000000000000000000000000000000000000081526004016105f090610edc565b60405180910390fd5b600360009054906101000a900473ffffffffffffffffffffffffffffffffffffffff1673ffffffffffffffffffffffffffffffffffffffff163373ffffffffffffffffffffffffffffffffffffffff1614610689576040517f08c379a000000000000000000000000000000000000000000000000000000000815260040161068090610e0d565b60405180910390fd5b64174876e80061069847610b1c565b10156106d9576040517f08c379a00000000000000000000000000000000000000000000000000000000081526004016106d0906110d2565b60405180910390fd5b60003373ffffffffffffffffffffffffffffffffffffffff16476040516106ff90611005565b60006040518083038185875af1925050503d806000811461073c576040519150601f19603f3d011682016040523d82523d6000602084013e610741565b606091505b50508091505080610787576040517f08c379a000000000000000000000000000000000000000000000000000000000815260040161077e90611066565b60405180910390fd5b50565b600260009054906101000a900473ffffffffffffffffffffffffffffffffffffffff1681565b60006020528060005260406000206000915090505481565b6001546107d434610b1c565b1015610815576040517f08c379a000000000000000000000000000000000000000000000000000000000815260040161080c9061113e565b60405180910390fd5b6005546004546108259190610e5c565b4210610866576040517f08c379a000000000000000000000000000000000000000000000000000000000815260040161085d906111aa565b60405180910390fd5b346000803373ffffffffffffffffffffffffffffffffffffffff1673ffffffffffffffffffffffffffffffffffffffff16815260200190815260200160002060008282546108b49190610e5c565b92505081905550565b600080600260009054906101000a900473ffffffffffffffffffffffffffffffffffffffff1673ffffffffffffffffffffffffffffffffffffffff1663feaf968c6040518163ffffffff1660e01b815260040160a060405180830381865afa15801561092d573d6000803e3d6000fd5b505050506040513d601f19601f82011682018060405250810190610951919061124d565b5050509150508091505090565b600660009054906101000a900473ffffffffffffffffffffffffffffffffffffffff1673ffffffffffffffffffffffffffffffffffffffff163373ffffffffffffffffffffffffffffffffffffffff16146109ee576040517f08c379a00000000000000000000000000000000000000000000000000000000081526004016109e59061133a565b60405180910390fd5b806000808473ffffffffffffffffffffffffffffffffffffffff1673ffffffffffffffffffffffffffffffffffffffff168152602001908152602001600020819055505050565b600660149054906101000a900460ff1681565b600360009054906101000a900473ffffffffffffffffffffffffffffffffffffffff1673ffffffffffffffffffffffffffffffffffffffff163373ffffffffffffffffffffffffffffffffffffffff1614610ad8576040517f08c379a0000000000000000000000000000000000000000000000000000000008152600401610acf90610e0d565b60405180910390fd5b80600360006101000a81548173ffffffffffffffffffffffffffffffffffffffff021916908373ffffffffffffffffffffffffffffffffffffffff16021790555050565b600080610b276108bd565b90506305f5e1008184610b3a919061135a565b610b4491906113cb565b915050919050565b600080fd5b600073ffffffffffffffffffffffffffffffffffffffff82169050919050565b6000610b7c82610b51565b9050919050565b610b8c81610b71565b8114610b9757600080fd5b50565b600081359050610ba981610b83565b92915050565b600060208284031215610bc557610bc4610b4c565b5b6000610bd384828501610b9a565b91505092915050565b610be581610b71565b82525050565b6000602082019050610c006000830184610bdc565b92915050565b6000819050919050565b6000610c2b610c26610c2184610b51565b610c06565b610b51565b9050919050565b6000610c3d82610c10565b9050919050565b6000610c4f82610c32565b9050919050565b610c5f81610c44565b82525050565b6000602082019050610c7a6000830184610c56565b92915050565b6000819050919050565b610c9381610c80565b82525050565b6000602082019050610cae6000830184610c8a565b92915050565b6000819050919050565b610cc781610cb4565b82525050565b6000602082019050610ce26000830184610cbe565b92915050565b610cf181610c80565b8114610cfc57600080fd5b50565b600081359050610d0e81610ce8565b92915050565b60008060408385031215610d2b57610d2a610b4c565b5b6000610d3985828601610b9a565b9250506020610d4a85828601610cff565b9150509250929050565b60008115159050919050565b610d6981610d54565b82525050565b6000602082019050610d846000830184610d60565b92915050565b600082825260208201905092915050565b7f746869732066756e6374696f6e2063616e206f6e6c792062652063616c6c656460008201527f206279206f776e65720000000000000000000000000000000000000000000000602082015250565b6000610df7602983610d8a565b9150610e0282610d9b565b604082019050919050565b60006020820190508181036000830152610e2681610dea565b9050919050565b7f4e487b7100000000000000000000000000000000000000000000000000000000600052601160045260246000fd5b6000610e6782610c80565b9150610e7283610c80565b9250828201905080821115610e8a57610e89610e2d565b5b92915050565b7f77696e646f77206973206e6f7420636c6f736564000000000000000000000000600082015250565b6000610ec6601483610d8a565b9150610ed182610e90565b602082019050919050565b60006020820190508181036000830152610ef581610eb9565b9050919050565b7f7461726765742069732072656163686564000000000000000000000000000000600082015250565b6000610f32601183610d8a565b9150610f3d82610efc565b602082019050919050565b60006020820190508181036000830152610f6181610f25565b9050919050565b7f7468657265206973206e6f2066756e6420666f7220796f750000000000000000600082015250565b6000610f9e601883610d8a565b9150610fa982610f68565b602082019050919050565b60006020820190508181036000830152610fcd81610f91565b9050919050565b600081905092915050565b50565b6000610fef600083610fd4565b9150610ffa82610fdf565b600082019050919050565b600061101082610fe2565b9150819050919050565b7f7472616e73666572207478206661696c65640000000000000000000000000000600082015250565b6000611050601283610d8a565b915061105b8261101a565b602082019050919050565b6000602082019050818103600083015261107f81611043565b9050919050565b7f746172676574206973206e6f7420726561636865640000000000000000000000600082015250565b60006110bc601583610d8a565b91506110c782611086565b602082019050919050565b600060208201905081810360008301526110eb816110af565b9050919050565b7f53656e64206d6f72652045544800000000000000000000000000000000000000600082015250565b6000611128600d83610d8a565b9150611133826110f2565b602082019050919050565b600060208201905081810360008301526111578161111b565b9050919050565b7f77696e646f7720697320636c6f73656400000000000000000000000000000000600082015250565b6000611194601083610d8a565b915061119f8261115e565b602082019050919050565b600060208201905081810360008301526111c381611187565b9050919050565b600069ffffffffffffffffffff82169050919050565b6111e9816111ca565b81146111f457600080fd5b50565b600081519050611206816111e0565b92915050565b61121581610cb4565b811461122057600080fd5b50565b6000815190506112328161120c565b92915050565b60008151905061124781610ce8565b92915050565b600080600080600060a0868803121561126957611268610b4c565b5b6000611277888289016111f7565b955050602061128888828901611223565b945050604061129988828901611238565b93505060606112aa88828901611238565b92505060806112bb888289016111f7565b9150509295509295909350565b7f796f7520646f206e6f742068617665207065726d697373696f6e20746f20636160008201527f6c6c20746869732066756e6374696f6e00000000000000000000000000000000602082015250565b6000611324603083610d8a565b915061132f826112c8565b604082019050919050565b6000602082019050818103600083015261135381611317565b9050919050565b600061136582610c80565b915061137083610c80565b925082820261137e81610c80565b9150828204841483151761139557611394610e2d565b5b5092915050565b7f4e487b7100000000000000000000000000000000000000000000000000000000600052601260045260246000fd5b60006113d682610c80565b91506113e183610c80565b9250826113f1576113f061139c565b5b82820490509291505056fea26469706673582212203d284bac7943c7437aaa82e407e157962f066b8cbfc52f933dbe99c6f38423b764736f6c634300081c0033",
  "linkReferences": {},
  "deployedLinkReferences": {}
}