{
  "_format": "hh-sol-artifact-1",
  "contractName": "FundToken",
  "sourceName": "contracts/FundToken.sol",
  "abi": [
    {
      "inputs": [
        {
          "internalType": "string",
          "name": "_tokenName",
          "type": "string"
        },
        {
          "internalType": "string",
          "name": "_tokenSymbol",
          "type": "string"
        }
      ],
      "stateMutability": "nonpayable",
      "type": "constructor"
    },
    {
      "inputs": [
        {
          "internalType": "address",
          "name": "addr",
          "type": "address"
        }
      ],
      "name": "balanceOf",
      "outputs": [
        {
          "internalType": "uint256",
          "name": "",
          "type": "uint256"
        }
      ],
      "stateMutability": "view",
      "type": "function"
    },
    {
      "inputs": [
        {
          "internalType": "address",
          "name": "",
          "type": "address"
        }
      ],
      "name": "balances",
      "outputs": [
        {
          "internalType": "uint256",
          "name": "",
          "type": "uint256"
        }
      ],
      "stateMutability": "view",
      "type": "function"
    },
    {
      "inputs": [
        {
          "internalType": "uint256",
          "name": "amountToMint",
          "type": "uint256"
        }
      ],
      "name": "mint",
      "outputs": [],
      "stateMutability": "nonpayable",
      "type": "function"
    },
    {
      "inputs": [],
      "name": "owner",
      "outputs": [
        {
          "internalType": "address",
          "name": "",
          "type": "address"
        }
      ],
      "stateMutability": "view",
      "type": "function"
    },
    {
      "inputs": [],
      "name": "tokenName",
      "outputs": [
        {
          "internalType": "string",
          "name": "",
          "type": "string"
        }
      ],
      "stateMutability": "view",
      "type": "function"
    },
    {
      "inputs": [],
      "name": "tokenSymbol",
      "outputs": [
        {
          "internalType": "string",
          "name": "",
          "type": "string"
        }
      ],
      "stateMutability": "view",
      "type": "function"
    },
    {
      "inputs": [],
      "name": "totalSupply",
      "outputs": [
        {
          "internalType": "uint256",
          "name": "",
          "type": "uint256"
        }
      ],
      "stateMutability": "view",
      "type": "function"
    },
    {
      "inputs": [
        {
          "internalType": "address",
          "name": "payee",
          "type": "address"
        },
        {
          "internalType": "uint256",
          "name": "amount",
          "type": "uint256"
        }
      ],
      "name": "transfer",
      "outputs": [],
      "stateMutability": "nonpayable",
      "type": "function"
    }
  ],
  "bytecode": "0x608060405234801561001057600080fd5b50604051610fdc380380610fdc8339818101604052810190610032919061027a565b61004c67e8499d1febbe5ce260c01b61010260201b60201c565b6100666722c9e0e52a9faf4560c01b61010260201b60201c565b81600090816100759190610513565b5061009067e35a4593880cb8de60c01b61010260201b60201c565b806001908161009f9190610513565b506100ba67daf8d8dcd0e532ad60c01b61010260201b60201c565b33600360006101000a81548173ffffffffffffffffffffffffffffffffffffffff021916908373ffffffffffffffffffffffffffffffffffffffff16021790555050506105e5565b50565b6000604051905090565b600080fd5b600080fd5b600080fd5b600080fd5b6000601f19601f8301169050919050565b7f4e487b7100000000000000000000000000000000000000000000000000000000600052604160045260246000fd5b61016c82610123565b810181811067ffffffffffffffff8211171561018b5761018a610134565b5b80604052505050565b600061019e610105565b90506101aa8282610163565b919050565b600067ffffffffffffffff8211156101ca576101c9610134565b5b6101d382610123565b9050602081019050919050565b60005b838110156101fe5780820151818401526020810190506101e3565b60008484015250505050565b600061021d610218846101af565b610194565b9050828152602081018484840111156102395761023861011e565b5b6102448482856101e0565b509392505050565b600082601f83011261026157610260610119565b5b815161027184826020860161020a565b91505092915050565b600080604083850312156102915761029061010f565b5b600083015167ffffffffffffffff8111156102af576102ae610114565b5b6102bb8582860161024c565b925050602083015167ffffffffffffffff8111156102dc576102db610114565b5b6102e88582860161024c565b9150509250929050565b600081519050919050565b7f4e487b7100000000000000000000000000000000000000000000000000000000600052602260045260246000fd5b6000600282049050600182168061034457607f821691505b602082108103610357576103566102fd565b5b50919050565b60008190508160005260206000209050919050565b60006020601f8301049050919050565b600082821b905092915050565b6000600883026103bf7fffffffffffffffffffffffffffffffffffffffffffffffffffffffffffffffff82610382565b6103c98683610382565b95508019841693508086168417925050509392505050565b6000819050919050565b6000819050919050565b600061041061040b610406846103e1565b6103eb565b6103e1565b9050919050565b6000819050919050565b61042a836103f5565b61043e61043682610417565b84845461038f565b825550505050565b600090565b610453610446565b61045e818484610421565b505050565b5b818110156104825761047760008261044b565b600181019050610464565b5050565b601f8211156104c7576104988161035d565b6104a184610372565b810160208510156104b0578190505b6104c46104bc85610372565b830182610463565b50505b505050565b600082821c905092915050565b60006104ea600019846008026104cc565b1980831691505092915050565b600061050383836104d9565b9150826002028217905092915050565b61051c826102f2565b67ffffffffffffffff81111561053557610534610134565b5b61053f825461032c565b61054a828285610486565b600060209050601f83116001811461057d576000841561056b578287015190505b61057585826104f7565b8655506105dd565b601f19841661058b8661035d565b60005b828110156105b35784890151825560018201915060208501945060208101905061058e565b868310156105d057848901516105cc601f8916826104d9565b8355505b6001600288020188555050505b505050505050565b6109e8806105f46000396000f3fe608060405234801561001057600080fd5b50600436106100885760003560e01c80637b61c3201161005b5780637b61c320146101295780638da5cb5b14610147578063a0712d6814610165578063a9059cbb1461018157610088565b806318160ddd1461008d57806327e235e3146100ab5780636c02a931146100db57806370a08231146100f9575b600080fd5b61009561019d565b6040516100a29190610609565b60405180910390f35b6100c560048036038101906100c09190610687565b6101a3565b6040516100d29190610609565b60405180910390f35b6100e36101bb565b6040516100f09190610744565b60405180910390f35b610113600480360381019061010e9190610687565b610249565b6040516101209190610609565b60405180910390f35b6101316102ce565b60405161013e9190610744565b60405180910390f35b61014f61035c565b60405161015c9190610775565b60405180910390f35b61017f600480360381019061017a91906107bc565b610382565b005b61019b600480360381019061019691906107e9565b610430565b005b60025481565b60046020528060005260406000206000915090505481565b600080546101c890610858565b80601f01602080910402602001604051908101604052809291908181526020018280546101f490610858565b80156102415780601f1061021657610100808354040283529160200191610241565b820191906000526020600020905b81548152906001019060200180831161022457829003601f168201915b505050505081565b600061025f672bfdea8c942cdc0660c01b6105ed565b61027367462e5dae7fd2bbc360c01b6105ed565b61028767c2597ef07427c69f60c01b6105ed565b600460008373ffffffffffffffffffffffffffffffffffffffff1673ffffffffffffffffffffffffffffffffffffffff168152602001908152602001600020549050919050565b600180546102db90610858565b80601f016020809104026020016040519081016040528092919081815260200182805461030790610858565b80156103545780601f1061032957610100808354040283529160200191610354565b820191906000526020600020905b81548152906001019060200180831161033757829003601f168201915b505050505081565b600360009054906101000a900473ffffffffffffffffffffffffffffffffffffffff1681565b61039667ca75e7b6eed52aac60c01b6105ed565b6103aa670acfe1af72cae39260c01b6105ed565b80600460003373ffffffffffffffffffffffffffffffffffffffff1673ffffffffffffffffffffffffffffffffffffffff16815260200190815260200160002060008282546103f991906108b8565b92505081905550610414671dae6efd4a8071fb60c01b6105ed565b806002600082825461042691906108b8565b9250508190555050565b61044467f9267f8501689ada60c01b6105ed565b61045867ab49940de4fd519060c01b6105ed565b61046c675675a45d352b576660c01b6105ed565b6104806701e673a0f9c3a53e60c01b6105ed565b80600460003373ffffffffffffffffffffffffffffffffffffffff1673ffffffffffffffffffffffffffffffffffffffff1681526020019081526020016000205411610501576040517f08c379a00000000000000000000000000000000000000000000000000000000081526004016104f89061095e565b60405180910390fd5b61051567a282ececddbfbcf560c01b6105ed565b6105296781787d3f8581777160c01b6105ed565b80600460003373ffffffffffffffffffffffffffffffffffffffff1673ffffffffffffffffffffffffffffffffffffffff1681526020019081526020016000206000828254610578919061097e565b9250508190555061059367994d7a5c8f4fa55d60c01b6105ed565b80600460008473ffffffffffffffffffffffffffffffffffffffff1673ffffffffffffffffffffffffffffffffffffffff16815260200190815260200160002060008282546105e291906108b8565b925050819055505050565b50565b6000819050919050565b610603816105f0565b82525050565b600060208201905061061e60008301846105fa565b92915050565b600080fd5b600073ffffffffffffffffffffffffffffffffffffffff82169050919050565b600061065482610629565b9050919050565b61066481610649565b811461066f57600080fd5b50565b6000813590506106818161065b565b92915050565b60006020828403121561069d5761069c610624565b5b60006106ab84828501610672565b91505092915050565b600081519050919050565b600082825260208201905092915050565b60005b838110156106ee5780820151818401526020810190506106d3565b60008484015250505050565b6000601f19601f8301169050919050565b6000610716826106b4565b61072081856106bf565b93506107308185602086016106d0565b610739816106fa565b840191505092915050565b6000602082019050818103600083015261075e818461070b565b905092915050565b61076f81610649565b82525050565b600060208201905061078a6000830184610766565b92915050565b610799816105f0565b81146107a457600080fd5b50565b6000813590506107b681610790565b92915050565b6000602082840312156107d2576107d1610624565b5b60006107e0848285016107a7565b91505092915050565b60008060408385031215610800576107ff610624565b5b600061080e85828601610672565b925050602061081f858286016107a7565b9150509250929050565b7f4e487b7100000000000000000000000000000000000000000000000000000000600052602260045260246000fd5b6000600282049050600182168061087057607f821691505b60208210810361088357610882610829565b5b50919050565b7f4e487b7100000000000000000000000000000000000000000000000000000000600052601160045260246000fd5b60006108c3826105f0565b91506108ce836105f0565b92508282019050808211156108e6576108e5610889565b5b92915050565b7f596f7520646f206e6f74206861766520656e6f7567682062616c616e6365207460008201527f6f207472616e7366657200000000000000000000000000000000000000000000602082015250565b6000610948602a836106bf565b9150610953826108ec565b604082019050919050565b600060208201905081810360008301526109778161093b565b9050919050565b6000610989826105f0565b9150610994836105f0565b92508282039050818111156109ac576109ab610889565b5b9291505056fea264697066735822122036db6e778eab9a4caf7d0b68531a3a3da6d314b19a64767ae7203d4165d9745264736f6c634300081c0033",
  "linkReferences": {},
  "deployedLinkReferences": {}
}